{
  "address": "0x24c8bE8686C67bA74a7eEBEd29D703DE9b6ea941",
  "abi": [
    {
      "inputs": [],
      "payable": false,
      "stateMutability": "nonpayable",
      "type": "constructor"
    },
    {
      "anonymous": false,
      "inputs": [
        {
          "indexed": true,
          "internalType": "address",
          "name": "owner",
          "type": "address"
        },
        {
          "indexed": true,
          "internalType": "address",
          "name": "spender",
          "type": "address"
        },
        {
          "indexed": false,
          "internalType": "uint256",
          "name": "value",
          "type": "uint256"
        }
      ],
      "name": "Approval",
      "type": "event"
    },
    {
      "anonymous": false,
      "inputs": [
        {
          "indexed": true,
          "internalType": "address",
          "name": "from",
          "type": "address"
        },
        {
          "indexed": true,
          "internalType": "address",
          "name": "to",
          "type": "address"
        },
        {
          "indexed": false,
          "internalType": "uint256",
          "name": "value",
          "type": "uint256"
        }
      ],
      "name": "Transfer",
      "type": "event"
    },
    {
      "constant": true,
      "inputs": [],
      "name": "DAO_FUND_ALLOCATION",
      "outputs": [
        {
          "internalType": "uint256",
          "name": "",
          "type": "uint256"
        }
      ],
      "payable": false,
      "stateMutability": "view",
      "type": "function"
    },
    {
      "constant": true,
      "inputs": [],
      "name": "DAO_FUND_VAULT",
      "outputs": [
        {
          "internalType": "address",
          "name": "",
          "type": "address"
        }
      ],
      "payable": false,
      "stateMutability": "view",
      "type": "function"
    },
    {
      "constant": true,
      "inputs": [],
      "name": "DOMAIN_SEPARATOR",
      "outputs": [
        {
          "internalType": "bytes32",
          "name": "",
          "type": "bytes32"
        }
      ],
      "payable": false,
      "stateMutability": "view",
      "type": "function"
    },
    {
      "constant": true,
      "inputs": [],
      "name": "GENSLER_TOTAL_SUPPLY_ALLOCATION",
      "outputs": [
        {
          "internalType": "uint256",
          "name": "",
          "type": "uint256"
        }
      ],
      "payable": false,
      "stateMutability": "view",
      "type": "function"
    },
    {
      "constant": true,
      "inputs": [],
      "name": "LIQUIDITY_ALLOCATION",
      "outputs": [
        {
          "internalType": "uint256",
          "name": "",
          "type": "uint256"
        }
      ],
      "payable": false,
      "stateMutability": "view",
      "type": "function"
    },
    {
      "constant": true,
      "inputs": [],
      "name": "LIQUIDITY_VAULT",
      "outputs": [
        {
          "internalType": "address",
          "name": "",
          "type": "address"
        }
      ],
      "payable": false,
      "stateMutability": "view",
      "type": "function"
    },
    {
      "constant": true,
      "inputs": [],
      "name": "LP_FARM_COMMUNITY_ALLOCATION",
      "outputs": [
        {
          "internalType": "uint256",
          "name": "",
          "type": "uint256"
        }
      ],
      "payable": false,
      "stateMutability": "view",
      "type": "function"
    },
    {
      "constant": true,
      "inputs": [],
      "name": "LP_FARM_COMMUNITY_VAULT",
      "outputs": [
        {
          "internalType": "address",
          "name": "",
          "type": "address"
        }
      ],
      "payable": false,
      "stateMutability": "view",
      "type": "function"
    },
    {
      "constant": true,
      "inputs": [],
      "name": "MARKETING_ALLOCATION",
      "outputs": [
        {
          "internalType": "uint256",
          "name": "",
          "type": "uint256"
        }
      ],
      "payable": false,
      "stateMutability": "view",
      "type": "function"
    },
    {
      "constant": true,
      "inputs": [],
      "name": "MARKETING_VAULT",
      "outputs": [
        {
          "internalType": "address",
          "name": "",
          "type": "address"
        }
      ],
      "payable": false,
      "stateMutability": "view",
      "type": "function"
    },
    {
      "constant": true,
      "inputs": [],
      "name": "PERMIT_TYPEHASH",
      "outputs": [
        {
          "internalType": "bytes32",
          "name": "",
          "type": "bytes32"
        }
      ],
      "payable": false,
      "stateMutability": "view",
      "type": "function"
    },
    {
      "constant": true,
      "inputs": [],
      "name": "TEAM_SUPPLY_ALLOCATION",
      "outputs": [
        {
          "internalType": "uint256",
          "name": "",
          "type": "uint256"
        }
      ],
      "payable": false,
      "stateMutability": "view",
      "type": "function"
    },
    {
      "constant": true,
      "inputs": [],
      "name": "TEAM_SUPPLY_VAULT",
      "outputs": [
        {
          "internalType": "address",
          "name": "",
          "type": "address"
        }
      ],
      "payable": false,
      "stateMutability": "view",
      "type": "function"
    },
    {
      "constant": true,
      "inputs": [
        {
          "internalType": "address",
          "name": "",
          "type": "address"
        },
        {
          "internalType": "address",
          "name": "",
          "type": "address"
        }
      ],
      "name": "allowance",
      "outputs": [
        {
          "internalType": "uint256",
          "name": "",
          "type": "uint256"
        }
      ],
      "payable": false,
      "stateMutability": "view",
      "type": "function"
    },
    {
      "constant": false,
      "inputs": [
        {
          "internalType": "address",
          "name": "spender",
          "type": "address"
        },
        {
          "internalType": "uint256",
          "name": "value",
          "type": "uint256"
        }
      ],
      "name": "approve",
      "outputs": [
        {
          "internalType": "bool",
          "name": "",
          "type": "bool"
        }
      ],
      "payable": false,
      "stateMutability": "nonpayable",
      "type": "function"
    },
    {
      "constant": true,
      "inputs": [
        {
          "internalType": "address",
          "name": "",
          "type": "address"
        }
      ],
      "name": "balanceOf",
      "outputs": [
        {
          "internalType": "uint256",
          "name": "",
          "type": "uint256"
        }
      ],
      "payable": false,
      "stateMutability": "view",
      "type": "function"
    },
    {
      "constant": true,
      "inputs": [],
      "name": "decimals",
      "outputs": [
        {
          "internalType": "uint8",
          "name": "",
          "type": "uint8"
        }
      ],
      "payable": false,
      "stateMutability": "view",
      "type": "function"
    },
    {
      "constant": true,
      "inputs": [],
      "name": "name",
      "outputs": [
        {
          "internalType": "string",
          "name": "",
          "type": "string"
        }
      ],
      "payable": false,
      "stateMutability": "view",
      "type": "function"
    },
    {
      "constant": true,
      "inputs": [
        {
          "internalType": "address",
          "name": "",
          "type": "address"
        }
      ],
      "name": "nonces",
      "outputs": [
        {
          "internalType": "uint256",
          "name": "",
          "type": "uint256"
        }
      ],
      "payable": false,
      "stateMutability": "view",
      "type": "function"
    },
    {
      "constant": false,
      "inputs": [
        {
          "internalType": "address",
          "name": "owner",
          "type": "address"
        },
        {
          "internalType": "address",
          "name": "spender",
          "type": "address"
        },
        {
          "internalType": "uint256",
          "name": "value",
          "type": "uint256"
        },
        {
          "internalType": "uint256",
          "name": "deadline",
          "type": "uint256"
        },
        {
          "internalType": "uint8",
          "name": "v",
          "type": "uint8"
        },
        {
          "internalType": "bytes32",
          "name": "r",
          "type": "bytes32"
        },
        {
          "internalType": "bytes32",
          "name": "s",
          "type": "bytes32"
        }
      ],
      "name": "permit",
      "outputs": [],
      "payable": false,
      "stateMutability": "nonpayable",
      "type": "function"
    },
    {
      "constant": true,
      "inputs": [],
      "name": "symbol",
      "outputs": [
        {
          "internalType": "string",
          "name": "",
          "type": "string"
        }
      ],
      "payable": false,
      "stateMutability": "view",
      "type": "function"
    },
    {
      "constant": true,
      "inputs": [],
      "name": "totalSupply",
      "outputs": [
        {
          "internalType": "uint256",
          "name": "",
          "type": "uint256"
        }
      ],
      "payable": false,
      "stateMutability": "view",
      "type": "function"
    },
    {
      "constant": false,
      "inputs": [
        {
          "internalType": "address",
          "name": "to",
          "type": "address"
        },
        {
          "internalType": "uint256",
          "name": "value",
          "type": "uint256"
        }
      ],
      "name": "transfer",
      "outputs": [
        {
          "internalType": "bool",
          "name": "",
          "type": "bool"
        }
      ],
      "payable": false,
      "stateMutability": "nonpayable",
      "type": "function"
    },
    {
      "constant": false,
      "inputs": [
        {
          "internalType": "address",
          "name": "from",
          "type": "address"
        },
        {
          "internalType": "address",
          "name": "to",
          "type": "address"
        },
        {
          "internalType": "uint256",
          "name": "value",
          "type": "uint256"
        }
      ],
      "name": "transferFrom",
      "outputs": [
        {
          "internalType": "bool",
          "name": "",
          "type": "bool"
        }
      ],
      "payable": false,
      "stateMutability": "nonpayable",
      "type": "function"
    }
  ],
  "transactionHash": "0xdbd086b5a569c1d21866ac9abdfcb4706c2f26d658973f4671b24111bf86cc65",
  "args": [],
  "numDeployments": 1,
  "solcInputHash": "494e4bdb0721291edb4184c12fe76722",
  "bytecode": "0x608060405234801561001057600080fd5b506040514690806052610d228239604080519182900360520182208282018252600a8352692ab734b9bbb0b8102b1960b11b6020938401528151808301835260018152603160f81b908401528151808401919091527fbfcc8ef98ffbf7b6c3fec7bf5185b566b9863e35a9d83acd49ad6824b5969738818301527fc89efdaa54c0f20c7adf612882df0950f5a951637e0307cdcb4c672f298b8bc6606082015260808101949094523060a0808601919091528151808603909101815260c090940190528251920191909120600355506101137391a0477de2ec316f01872a8376e3191d115873ef6c010f6b2be4706a13fc200000006001600160e01b036101e516565b610146734db353f92a268a3f3bcdcd031808492816e0f00d6b87b595f2383509fe100000006001600160e01b036101e516565b6101797338c3a5b0cb7c7f4fc3ef9fd94868e95dcf83be516b87b595f2383509fe100000006001600160e01b036101e516565b6101ac73283b195ab4f7a7b813f95304120f146e9b94c2d16b87b595f2383509fe100000006001600160e01b036101e516565b6101e073a9c4c79fdfa8ff63735d3129c9b3041ce83030aa6c02a68bedbb190931f6500000006001600160e01b036101e516565b6102e5565b6101fe8160005461028760201b6109aa1790919060201c565b60009081556001600160a01b03831681526001602090815260409091205461022f9183906109aa610287821b17901c565b6001600160a01b03831660008181526001602090815260408083209490945583518581529351929391927fddf252ad1be2c89b69c2b068fc378daa952ba7f163c4a11628f55a4df523b3ef9281900390910190a35050565b808201828110156102df576040805162461bcd60e51b815260206004820152601460248201527f64732d6d6174682d6164642d6f766572666c6f77000000000000000000000000604482015290519081900360640190fd5b92915050565b610a2e806102f46000396000f3fe608060405234801561001057600080fd5b50600436106101585760003560e01c80638e80bd39116100c3578063c9e7e4261161007c578063c9e7e4261461036c578063cace6b6a14610318578063d505accf14610374578063d58b8e06146103c7578063dd62ed3e146103cf578063f9428f381461031857610158565b80638e80bd391461031857806395d89b4114610320578063a9059cbb14610328578063c2085ea514610354578063c49947e21461035c578063c8d2034f1461036457610158565b806330adf81f1161011557806330adf81f14610296578063313ce5671461029e5780633644e515146102bc57806370a08231146102c45780637d2ab259146102ea5780637ecebe00146102f257610158565b806306fdde031461015d578063095ea7b3146101da57806318160ddd1461021a5780631fb814cf1461023457806323b872dd14610258578063302026501461028e575b600080fd5b6101656103fd565b6040805160208082528351818301528351919283929083019185019080838360005b8381101561019f578181015183820152602001610187565b50505050905090810190601f1680156101cc5780820380516001836020036101000a031916815260200191505b509250505060405180910390f35b610206600480360360408110156101f057600080fd5b506001600160a01b03813516906020013561042a565b604080519115158252519081900360200190f35b610222610441565b60408051918252519081900360200190f35b61023c610447565b604080516001600160a01b039092168252519081900360200190f35b6102066004803603606081101561026e57600080fd5b506001600160a01b0381358116916020810135909116906040013561045f565b6102226104f9565b61022261050a565b6102a661052e565b6040805160ff9092168252519081900360200190f35b610222610533565b610222600480360360208110156102da57600080fd5b50356001600160a01b0316610539565b61022261054b565b6102226004803603602081101561030857600080fd5b50356001600160a01b031661055c565b61022261056e565b61016561057e565b6102066004803603604081101561033e57600080fd5b506001600160a01b0381351690602001356105a1565b61023c6105ae565b61023c6105c6565b6102226105de565b61023c6105ef565b6103c5600480360360e081101561038a57600080fd5b506001600160a01b03813581169160208101359091169060408101359060608101359060ff6080820135169060a08101359060c00135610607565b005b61023c610809565b610222600480360360408110156103e557600080fd5b506001600160a01b0381358116916020013516610821565b6040518060400160405280601181526020017029b2b196bab934ba3c9023b2b739b632b960791b81525081565b600061043733848461083e565b5060015b92915050565b60005481565b7338c3a5b0cb7c7f4fc3ef9fd94868e95dcf83be5181565b6001600160a01b0383166000908152600260209081526040808320338452909152812054600019146104e4576001600160a01b03841660009081526002602090815260408083203384529091529020546104bf908363ffffffff6108a016565b6001600160a01b03851660009081526002602090815260408083203384529091529020555b6104ef8484846108f0565b5060019392505050565b6c02a68bedbb190931f65000000081565b7f6e71edae12b1b97f4d1f60370fef10105fa2faae0126114a169c64845d6126c981565b601281565b60035481565b60016020526000908152604090205481565b6c054d17db76321263eca000000081565b60046020526000908152604090205481565b6b87b595f2383509fe1000000081565b6040518060400160405280600781526020016623a2a729a622a960c91b81525081565b60006104373384846108f0565b734db353f92a268a3f3bcdcd031808492816e0f00d81565b73283b195ab4f7a7b813f95304120f146e9b94c2d181565b6c010f6b2be4706a13fc2000000081565b73a9c4c79fdfa8ff63735d3129c9b3041ce83030aa81565b42841015610651576040805162461bcd60e51b8152602060048201526012602482015271155b9a5cddd85c158c8e881156141254915160721b604482015290519081900360640190fd5b6003546001600160a01b0380891660008181526004602090815260408083208054600180820190925582517f6e71edae12b1b97f4d1f60370fef10105fa2faae0126114a169c64845d6126c98186015280840196909652958d166060860152608085018c905260a085019590955260c08085018b90528151808603909101815260e08501825280519083012061190160f01b6101008601526101028501969096526101228085019690965280518085039096018652610142840180825286519683019690962095839052610162840180825286905260ff89166101828501526101a284018890526101c28401879052519193926101e280820193601f1981019281900390910190855afa15801561076c573d6000803e3d6000fd5b5050604051601f1901519150506001600160a01b038116158015906107a25750886001600160a01b0316816001600160a01b0316145b6107f3576040805162461bcd60e51b815260206004820152601c60248201527f556e697377617056323a20494e56414c49445f5349474e415455524500000000604482015290519081900360640190fd5b6107fe89898961083e565b505050505050505050565b7391a0477de2ec316f01872a8376e3191d115873ef81565b600260209081526000928352604080842090915290825290205481565b6001600160a01b03808416600081815260026020908152604080832094871680845294825291829020859055815185815291517f8c5be1e5ebec7d5bd14f71427d1e84f3dd0314c0f7b2291e5b200ac8c7c3b9259281900390910190a3505050565b8082038281111561043b576040805162461bcd60e51b815260206004820152601560248201527464732d6d6174682d7375622d756e646572666c6f7760581b604482015290519081900360640190fd5b6001600160a01b038316600090815260016020526040902054610919908263ffffffff6108a016565b6001600160a01b03808516600090815260016020526040808220939093559084168152205461094e908263ffffffff6109aa16565b6001600160a01b0380841660008181526001602090815260409182902094909455805185815290519193928716927fddf252ad1be2c89b69c2b068fc378daa952ba7f163c4a11628f55a4df523b3ef92918290030190a3505050565b8082018281101561043b576040805162461bcd60e51b815260206004820152601460248201527364732d6d6174682d6164642d6f766572666c6f7760601b604482015290519081900360640190fdfea265627a7a723158206d0a42c3e3019841e0f13b0c7dc81a09fddb115bb3d1af822778a1208749f26664736f6c63430005100032454950373132446f6d61696e28737472696e67206e616d652c737472696e672076657273696f6e2c75696e7432353620636861696e49642c6164647265737320766572696679696e67436f6e747261637429",
  "devdoc": {
    "author": "The Security Team",
    "methods": {},
    "title": "Sec-urity Gensler Meme Coin"
  },
  "userdoc": {
    "methods": {},
    "notice": "The goal of this coin is to satirize institutions in their futile war against the crypto space  * Supply Allocation - 20% Team Supply (divided in 3 years on a weekly basis) - 10% Marketing - 10% DAO Fund - 10% Liquidity - 50% LP Farm Community  * Don't trust, verify: Project: https://github.com/meme-factory/Sec-urity-Gensler White Paper: https://github.com/meme-factory/Sec-urity-Gensler/blob/main/white-paper.md Launchpad: Meme Factory https://github.com/meme-factory * We are the army! We are the crypto army!! We are the meme crypto army!!!"
  },
  "storageLayout": {
    "storage": [
      {
        "astId": 107,
        "contract": "contracts/GenslerToken.sol:GenslerToken",
        "label": "totalSupply",
        "offset": 0,
        "slot": "0",
        "type": "t_uint256"
      },
      {
        "astId": 111,
        "contract": "contracts/GenslerToken.sol:GenslerToken",
        "label": "balanceOf",
        "offset": 0,
        "slot": "1",
        "type": "t_mapping(t_address,t_uint256)"
      },
      {
        "astId": 117,
        "contract": "contracts/GenslerToken.sol:GenslerToken",
        "label": "allowance",
        "offset": 0,
        "slot": "2",
        "type": "t_mapping(t_address,t_mapping(t_address,t_uint256))"
      },
      {
        "astId": 119,
        "contract": "contracts/GenslerToken.sol:GenslerToken",
        "label": "DOMAIN_SEPARATOR",
        "offset": 0,
        "slot": "3",
        "type": "t_bytes32"
      },
      {
        "astId": 126,
        "contract": "contracts/GenslerToken.sol:GenslerToken",
        "label": "nonces",
        "offset": 0,
        "slot": "4",
        "type": "t_mapping(t_address,t_uint256)"
      }
    ],
    "types": {
      "t_address": {
        "encoding": "inplace",
        "label": "address",
        "numberOfBytes": "20"
      },
      "t_bytes32": {
        "encoding": "inplace",
        "label": "bytes32",
        "numberOfBytes": "32"
      },
      "t_mapping(t_address,t_mapping(t_address,t_uint256))": {
        "encoding": "mapping",
        "key": "t_address",
        "label": "mapping(address => mapping(address => uint256))",
        "numberOfBytes": "32",
        "value": "t_mapping(t_address,t_uint256)"
      },
      "t_mapping(t_address,t_uint256)": {
        "encoding": "mapping",
        "key": "t_address",
        "label": "mapping(address => uint256)",
        "numberOfBytes": "32",
        "value": "t_uint256"
      },
      "t_uint256": {
        "encoding": "inplace",
        "label": "uint256",
        "numberOfBytes": "32"
      }
    }
  }
}